201704200452794005CHARTRES DIFFUSION PRESSE                                       CHARTRES DIFFUSION PRESSE       VOIT 05 MAINVILLIERS CDP        000001                                                          25 RUE JEAN ROSTAND             ZA LE VALLIER                   0236478424              MAINVILLIERS                                                                                                                                                        *
201704200558010005TALON CHARTRES DIFF PRESSE                                      TALON CHARTRES DIFF PRESSE      VOIT 05 MAINVILLIERS CDP        000000                                                          13 RUE JEAN PERRIN                                              0237840550              MAINVILLIERS                                                                                                                                                        *
201704200696261005BERTIN SEBASTIEN                                                BERTIN SEBASTIEN                VOIT 05 MAINVILLIERS CDP        000001                                                          14 RUE SAINT NICOLAS                                            0254801578              DROUE                                                                                                                                                               *
201704200453028005MAULNY ODETTE                                                   MAULNY ODETTE                   VOIT 05 MAINVILLIERS CDP        000002                                                          15 RUE DU 11 NOVEMBRE                                           0237968293              ST HILAIRE SUR YERRE                                                                                                                                                *
201704200724529005LEMAIRE XAVIER                                                  LEMAIRE XAVIER                  VOIT 05 MAINVILLIERS CDP        000001                                                          6 RUE DE CHAVANNES                                              0237848345              MORANCEZ                                                                                                                                                            *
201704200726979005GEVRESSE JOCELYNE                                               GEVRESSE JOCELYNE               VOIT 05 MAINVILLIERS CDP        000001                                                          2 RUE DE L EGLISE                                               0237297285              HAPPONVILLIERS                                                                                                                                                      *
201704200556001010ARCHIVES ET COLLECTIONS                                         ARCHIVES ET COLLECTIONS         VOIT 10 LOCAL CHARTRES          000000                                                          21 RUE VINCENT CHEVARD                                                                  CHARTRES                                                                                                                                                            *
201704200709668010OLIVIER PATRICK                                                 OLIVIER PATRICK                 VOIT 10 LOCAL CHARTRES          000000                                                          18 AV DE LA REPUBLIQUE                                          0234430210              CHARTRES                                                                                                                                                            *
201704200556083010COMMISSARIAT DE POLICE                                          COMMISSARIAT DE POLICE          VOIT 10 LOCAL CHARTRES          000000                                                          21 RUE VINCENT CHEVARD                                                                  CHARTRES                                                                                                                                                            *
201704200640251010MOREAU JEREMY - E042                                            MOREAU JEREMY - E042            VOIT 10 LOCAL CHARTRES          000000                                                          10 RUE SERPENTE                                                                         LA BOURDINIERE ST LOUP                                                                                                                                              *
201704200521599010BRIERE STEPHANE - E014                                          BRIERE STEPHANE - E014          VOIT 10 LOCAL CHARTRES          000000                                                          36 RUE DU 14 JUILLET                                                                    MAINVILLIERS                                                                                                                                                        *
201704200581679010BILOSO NSAMU FREDDY - E046                                      BILOSO NSAMU FREDDY - E046      VOIT 10 LOCAL CHARTRES          000000                                                          12 RUE DU VIEUX PUITS           APPT 26                         0659842440              LUCE                                                                                                                                                                *
201704200610914010NOURRY XAVIER - E021-E232                                       NOURRY XAVIER - E021-E232       VOIT 10 LOCAL CHARTRES          000000                                                          22 RUE JEAN JAURES                                                                      MAINVILLIERS                                                                                                                                                        *
201704200521255010BOULAY ODILE - E018                                             BOULAY ODILE - E018             VOIT 10 LOCAL CHARTRES          000000                                                          5 RUE DU 15 AOUT 1944                                           0237329938              AMILLY                                                                                                                                                              *
201704200521303010POULAIN DOMINIQUE - E048                                        POULAIN DOMINIQUE - E048        VOIT 10 LOCAL CHARTRES          000000                                                          6 RUE DU MARCHAIS                                               0237260013              LUPLANTE                                                                                                                                                            *
201704200521398010MARIGNALE ROGER - E057/E20                                      MARIGNALE ROGER - E057/E20      VOIT 10 LOCAL CHARTRES          000000                                                          7 RUE SALVADOR ALLENDE                                          0237351164              CHARTRES                                                                                                                                                            *
201704200560950010GUESNET GERARD - E093                                           GUESNET GERARD - E093           VOIT 10 LOCAL CHARTRES          000000                                                          3 RUE DE L ORME GUYOT           OISEME                          0237319814              GASVILLE OISEME                                                                                                                                                     *
201704200611465010FLEURIDAS ISABELLE - E094                                       FLEURIDAS ISABELLE - E094       VOIT 10 LOCAL CHARTRES          000000                                                          26 RUE DU FORT MAHON                                                                    BARJOUVILLE                                                                                                                                                         *
201704200521120010DUCHEMANN CHRISTIAN - E010                                      DUCHEMANN CHRISTIAN - E010      VOIT 10 LOCAL CHARTRES          000000                                                          6 RUE DU HOTBROU                                                0237282538              BARJOUVILLE                                                                                                                                                         *
201704200521115010THIEULIN PIERRE - E009/E24                                      THIEULIN PIERRE - E009/E24      VOIT 10 LOCAL CHARTRES          000000                                                          19 RUE CHARLES BRUNE                                                                    CHARTRES                                                                                                                                                            *
201704200652079010GALLOIS SYLVIE - E023                                           GALLOIS SYLVIE - E023           VOIT 10 LOCAL CHARTRES          000000                                                          15 B RUE DU VILLAGE                                             0237228762              POISVILLIERS                                                                                                                                                        *
201704200583129010TEDESCHI SEVERINE - E051                                        TEDESCHI SEVERINE - E051        VOIT 10 LOCAL CHARTRES          000000                                                          14 RUE DU VIEUX PUITS                                                                   LUCE                                                                                                                                                                *
201704200656244010RILCY LUCIEN - E029 E206                                        RILCY LUCIEN - E029 E206        VOIT 10 LOCAL CHARTRES          000000                                                          119 B AV DE LA PAIX                                             0237361967              LEVES                                                                                                                                                               *
201704200665646010BOULAY ELISABETH   -019                                         BOULAY ELISABETH   -019         VOIT 10 LOCAL CHARTRES          000000                                                          14 RUE DU 15 AOUT 1944                                                                  AMILLY                                                                                                                                                              *
201704200521428010TAILLEBOIS CLAUDE - E081                                        TAILLEBOIS CLAUDE - E081        VOIT 10 LOCAL CHARTRES          000000                                                          3 RUE DE LA MARNIERE                                                                    ILLIERS COMBRAY                                                                                                                                                     *
201704200521262010NERE GHISLAINE - E024                                           NERE GHISLAINE - E024           VOIT 10 LOCAL CHARTRES          000000                                                          53 RUE SAINT BRICE                                              0237356924              CHARTRES                                                                                                                                                            *
201704200521266010DUPREZ MARC - E026                                              DUPREZ MARC - E026              VOIT 10 LOCAL CHARTRES          000000                                                          2 RLE DU GRAND SENTIER                                          0237362365              CHARTRES                                                                                                                                                            *
201704200521273010ZANZUCCHI STEPHANE - E032                                       ZANZUCCHI STEPHANE - E032       VOIT 10 LOCAL CHARTRES          000000                                                          76 B RUE DU FAUBOURG LA GRAPPE                                  0237307450              CHARTRES                                                                                                                                                            *
201704200521287010GALLOIS GERARD - E041/E207                                      GALLOIS GERARD - E041/E207      VOIT 10 LOCAL CHARTRES          000000                                                          15 B RUE DU VILLAGE                                             0237228762              POISVILLIERS                                                                                                                                                        *
201704200521597010SANCHEZ MICHEL - E203/E040                                      SANCHEZ MICHEL - E203/E040      VOIT 10 LOCAL CHARTRES          000000                                                          5 MAI DES PETITS CLOS                                                                   CHARTRES                                                                                                                                                            *
201704200521388010DARDUIN FRANCOIS - E052                                         DARDUIN FRANCOIS - E052         VOIT 10 LOCAL CHARTRES          000000                                                          27 RUE DE GASCOGNE                                              0237344952              LUCE                                                                                                                                                                *
201704200521269010MOULIN MICKAEL - E028                                           MOULIN MICKAEL - E028           VOIT 10 LOCAL CHARTRES          000000                                                          11 PL DE CHICHESTER                                             0237903627              CHARTRES                                                                                                                                                            *
201704200521123010ZOUNON GILLES - E012                                            ZOUNON GILLES - E012            VOIT 10 LOCAL CHARTRES          000000                                                          18 RUE JULES HETZEL                                                                     CHARTRES                                                                                                                                                            *
201704200521110010BRUN JEAN-PAUL - E007                                           BRUN JEAN-PAUL - E007           VOIT 10 LOCAL CHARTRES          000000                                                          5 RUE NELSON MANDELA                                            0237217525              LEVES                                                                                                                                                               *
201704200521114010PAUL HENRI - E008                                               PAUL HENRI - E008               VOIT 10 LOCAL CHARTRES          000000                                                          16 PL SAINT LOUIS                                               0237350954              CHARTRES                                                                                                                                                            *
201704200521410010LEMAIRE FREDERIC - E068                                         LEMAIRE FREDERIC - E068         VOIT 10 LOCAL CHARTRES          000000                                                          7 RUE JOSEPH WRESINSKI                                                                  CHARTRES                                                                                                                                                            *
201704200521097010GIRARD FREDERIC - E002                                          GIRARD FREDERIC - E002          VOIT 10 LOCAL CHARTRES          000000                                                          3 HAM DU COMTAT VENAISSIN                                       0237356584              LUCE                                                                                                                                                                *
201704200521264010LUCAS ALAIN - E025                                              LUCAS ALAIN - E025              VOIT 10 LOCAL CHARTRES          000000                                                          69 RUE FRANCOIS LEPINE                                          0237302673              LUISANT                                                                                                                                                             *
201704200521267010LEPELTIER BERNARD - E027                                        LEPELTIER BERNARD - E027        VOIT 10 LOCAL CHARTRES          000000                                                          8 RUE SAINT REMY                                                0237228535              BERCHERES ST GERMAIN                                                                                                                                                *
201704200520906010GAGLIONE PATRICIA  001                                          GAGLIONE PATRICIA  001          VOIT 10 LOCAL CHARTRES          000000                                                          3 RUE LUCIEN DENEAU                                                                     MAINVILLIERS                                                                                                                                                        *
201704200521271010MEUNIER FLORIAN - E030                                          MEUNIER FLORIAN - E030          VOIT 10 LOCAL CHARTRES          000000                                                          1 RUE DU MANTEAU JAUNE                                                                  LUCE                                                                                                                                                                *
201704200521257010HEMERY JEAN-LUC - E020                                          HEMERY JEAN-LUC - E020          VOIT 10 LOCAL CHARTRES          000000                                                          7 RUE CHARLES PEGUY                                             0237328648              CINTRAY                                                                                                                                                             *
201704200521122010GAUTRUCHE YVETTE - E011                                         GAUTRUCHE YVETTE - E011         VOIT 10 LOCAL CHARTRES          000000                                                          38 RUE MARCEAU                                                  0237360750              CHAMPHOL                                                                                                                                                            *
201704200521299010MICHEL GERARD E045/E207                                         MICHEL GERARD E045/E207         VOIT 10 LOCAL CHARTRES          000000                                                          5 ALL DES ECUREUILS                                             0237361763              LEVES                                                                                                                                                               *
201704200521421010DUCHEMANN GAEL - E076                                           DUCHEMANN GAEL - E076           VOIT 10 LOCAL CHARTRES          000000                                                          6 RUE DE LA TOUR                                                0237245909              MAGNY                                                                                                                                                               *
201704200454238010MIRRONET PHILIPPE - E311                                        MIRRONET PHILIPPE - E311        VOIT 10 LOCAL CHARTRES          000000                                                                                                                                                  CHARTRES                                                                                                                                                            *
201704200642341010COCHETEAU JOEL - E063                                           COCHETEAU JOEL - E063           VOIT 10 LOCAL CHARTRES          000000                                                          11 RUE VICTOR GILBERT                                                                   CHARTRES                                                                                                                                                            *
201704200181398010TALON DE RESERVE                                                TALON DE RESERVE                VOIT 10 LOCAL CHARTRES          000000                                                          21 RUE VINCENT CHEVARD                                                                  CHARTRES                                                                                                                                                            *
201704200556103010PROSPECTION SCE VENTES                                          PROSPECTION SCE VENTES          VOIT 10 LOCAL CHARTRES          000000                                                          21 RUE VINCENT CHEVARD                                                                  CHARTRES                                                                                                                                                            *
201704200530962031COCHET ISABELLE - E310                                          COCHET ISABELLE - E310          VOIT 31 MAINTENON               000000                                                          6 T RUE DU CHEMIN LATERAL                                       0667660809              VILLEMEUX SUR EURE                                                                                                                                                  *
201704200452780031CARREFOUR MARKET                                                CARREFOUR MARKET                VOIT 31 MAINTENON               000002                                                          2 RUE DU MOULIN                                                 0237275032  0237275032  PIERRES                                                                                                                                                             *
201704200452924031GARCIA VICTORINO                                                GARCIA VICTORINO                VOIT 31 MAINTENON               000002                                                          1 RUE RENE ET JEAN LEFEVRE                                      0237230295              PIERRES                                                                                                                                                             *
201704200734446031DIAMBOU SEKOU  E044                                             DIAMBOU SEKOU  E044             VOIT 31 MAINTENON               000000                                                          4 RUE DU CLOS BRETTE                                                                    CHARTRES                                                                                                                                                            *
201704200524447031BOIDIN HERVE                                                    BOIDIN HERVE                    VOIT 31 MAINTENON               000002                                                          RTE DE BOUGLAINVAL                                              0237230777              MAINTENON                                                                                                                                                           *
201704200640081031PERRIN MADELEINE                                                PERRIN MADELEINE                VOIT 31 MAINTENON               000001                                                          35 RUE COLLIN D HARLEVILLE                                      0237230585              MAINTENON                                                                                                                                                           *
201704200721774031GAURIN CHRISTOPHE  E079                                         GAURIN CHRISTOPHE  E079         VOIT 31 MAINTENON               000000                                                          34 HAM VILLANUEVA DEL PARDIL    LO                              0237362889              LUISANT                                                                                                                                                             *
201704200524351031POITEVIN DIDIER                                                 POITEVIN DIDIER                 VOIT 31 MAINTENON               000002                                                          5 GRANDE RUE                                                    0237825998              VILLIERS LE MORHIER                                                                                                                                                 *
201704200583474031ROUXEL VICTOR - E071 E218                                       ROUXEL VICTOR - E071 E218       VOIT 31 MAINTENON               000000                                                          8 IMP DES 4 VENTS                                                                       PIERRES                                                                                                                                                             *
201704200524364031LE BOUCHER PHILIPPE                                             LE BOUCHER PHILIPPE             VOIT 31 MAINTENON               000003                                                          LD LES HAUTS DE NOGENT          ROUTE D ORMOY                   0237514237              NOGENT LE ROI                                                                                                                                                       *
201704200672910031REMY AGNES - E050                                               REMY AGNES - E050               VOIT 31 MAINTENON               000000                                                          17 RUE DES SOURCES                                                                      CHAUDON                                                                                                                                                             *
201704200645629031DEPEINT CECILE P217-P050 R                                      DEPEINT CECILE P217-P050 R      VOIT 31 MAINTENON               000000                                                          5 PL EUGENE LABICHE                                             0237827994              NOGENT LE ROI                                                                                                                                                       *
201704200578156031AUMONT MANUEL                                                   AUMONT MANUEL                   VOIT 31 MAINTENON               000001                                                          55 GRANDE RUE                                                   0971510648              VILLEMEUX SUR EURE                                                                                                                                                  *
201704200576938031MILLON JEREMY                                                   MILLON JEREMY                   VOIT 31 MAINTENON               000001                                                          1 RUE DE LA FONTAINE                                            0237823108              CHAUDON                                                                                                                                                             *
201704200524397031SINOU                                                           SINOU                           VOIT 31 MAINTENON               000002                                                          36 GRANDE RUE                                                   0237514131              COULOMBS                                                                                                                                                            *
201704200709670031GUITTON ANGELIQUE                                               GUITTON ANGELIQUE               VOIT 31 MAINTENON               000001                                                          20 RUE DE SAVONNIERE                                            0237837769              EPERNON                                                                                                                                                             *
201704200602727031REGIEN NADINE                                                   REGIEN NADINE                   VOIT 31 MAINTENON               000002                                                          11 RUE DU GRAND PONT                                            0237834020              EPERNON                                                                                                                                                             *
201704200602729031RAVEL JEAN PIERRE                                               RAVEL JEAN PIERRE               VOIT 31 MAINTENON               000001                                                          2 RUE PAUL PAINLEVE                                             0237834052              EPERNON                                                                                                                                                             *
201704200602751031BERC JOSIANE                                                    BERC JOSIANE                    VOIT 31 MAINTENON               000002                                                          9 PL ARISTIDE BRIAND                                            0237836116              EPERNON                                                                                                                                                             *
201704200663743031LAPLACE SYLVIE                                                  LAPLACE SYLVIE                  VOIT 31 MAINTENON               000001                                                          PL NOE ET OMER SADORGE                                          0237834220              HANCHES                                                                                                                                                             *
201704200523171032MENEUST CATHERINE (R04)                                         MENEUST CATHERINE (R04)         VOIT 32 YVELINES DIFF VCP E088  000004                                                          45 RUE PIERRE TROUVE                                            0130591126              ABLIS                                                                                                                                                               *
201704200523175032YVELINES PRESSE                                                 YVELINES PRESSE                 VOIT 32 YVELINES DIFF VCP E088  000060                                                          8 B RUE DENIS PAPIN                                             0130164476              TRAPPES                                                                                                                                                             *
201704200613840032TERNISIEN PATRICK                                               TERNISIEN PATRICK               VOIT 32 YVELINES DIFF VCP E088  000001                                                          80 RUE DE PARIS                                                 0134848022              LE PERRAY EN YVELINES                                                                                                                                               *
201704200614021032LETOURNEUR ERIC                                                 LETOURNEUR ERIC                 VOIT 32 YVELINES DIFF VCP E088  000001                                                          24 RUE DE CHARTRES                                              0134849762              LE PERRAY EN YVELINES                                                                                                                                               *
201704200604776032TALON DEPANNAGE RAMBOUILLE                                      TALON DEPANNAGE RAMBOUILLE      VOIT 32 YVELINES DIFF VCP E088  000000                                                          44 RUE DU GENERAL DE GAULLE                                                             RAMBOUILLET                                                                                                                                                         *
201704200521438032BOUHOURS MARC - E088/E235                                       BOUHOURS MARC - E088/E235       VOIT 32 YVELINES DIFF VCP E088  000000                                                          27 RUE DE BRETIGNY                                              0237330018              CHARTRES                                                                                                                                                            *
201704200680874032RIQUEL GABRIELLE                                                RIQUEL GABRIELLE                VOIT 32 YVELINES DIFF VCP E088  000001                                                          22 RUE DE GROUSSAY                                              0161086216              RAMBOUILLET                                                                                                                                                         *
201704200692684032DUFFAULT MURIEL                                                 DUFFAULT MURIEL                 VOIT 32 YVELINES DIFF VCP E088  000001                                                          7 RUE DU GENERAL DE GAULLE                                      0134830182              RAMBOUILLET                                                                                                                                                         *
201704200651252033PICHOT EMILIE - P092-P221                                       PICHOT EMILIE - P092-P221       VOIT 33 AUNEAU                  000000                                                          6 RUE DE LA COMMANDERIE                                                                 SOURS                                                                                                                                                               *
201704200651877033LARCHER JOEL                                                    LARCHER JOEL                    VOIT 33 AUNEAU                  000001                                                          5 PL DE VERDUN                                                  0237257012              SOURS                                                                                                                                                               *
201704200521395033TAVET TEDDY - E055                                              TAVET TEDDY - E055              VOIT 33 AUNEAU                  000000                                                          36 CHE DU PORTILLON                                             0237312581              BEVILLE LE COMTE                                                                                                                                                    *
201704200523131033LEADER PRICE                                                    LEADER PRICE                    VOIT 33 AUNEAU                  000002                                                          FOS FONDUE                                                      0237317178              ROINVILLE                                                                                                                                                           *
201704200521400033HESPERIES DOMINIQUE - E059                                      HESPERIES DOMINIQUE - E059      VOIT 33 AUNEAU                  000000                                                          16 RUE DE BEL AIR                                               0237246957              SANTEUIL                                                                                                                                                            *
201704200585592033SEILLE CHRISTINE - E210/E0                                      SEILLE CHRISTINE - E210/E0      VOIT 33 AUNEAU                  000000                                                          7 RUE DE LA MULANDE                                                                     OUARVILLE                                                                                                                                                           *
201704200523166033SIMPLY MARKET-01071                                             SIMPLY MARKET-01071             VOIT 33 AUNEAU                  000002                                                          RUE DE CHARTRES                                                 0237317936              AUNEAU                                                                                                                                                              *
201704200452954033HENAULT JEAN-JACQUES                                            HENAULT JEAN-JACQUES            VOIT 33 AUNEAU                  000003                                                          50 PL DU MARCHE                                                 0237317477              AUNEAU                                                                                                                                                              *
201704200610912033MOULARD JULIEN - E056                                           MOULARD JULIEN - E056           VOIT 33 AUNEAU                  000000                                                          1 B RUE DES ACACIAS                                                                     OINVILLE SOUS AUNEAU                                                                                                                                                *
201704200524406033CARREFOUR MARKET                                                CARREFOUR MARKET                VOIT 33 AUNEAU                  000002                                                          RTE D EPERNON                                                   0237311702              GALLARDON                                                                                                                                                           *
201704200711632033TORRES GUILLAUME                                                TORRES GUILLAUME                VOIT 33 AUNEAU                  000001                                                          10 RUE DE LA PORTE MOUTON                                       0237314100              GALLARDON                                                                                                                                                           *
201704200452726033BOULET STEPHANE                                                 BOULET STEPHANE                 VOIT 33 AUNEAU                  000002                                                          3 RUE DE LA POULAILLERIE                                        0237314125  0237314125  GALLARDON                                                                                                                                                           *
201704200720993033THOUZET DAVID                                                   THOUZET DAVID                   VOIT 33 AUNEAU                  000001                                                          14 RUE DU TERTRE                                                0237316816              NOGENT LE PHAYE                                                                                                                                                     *
201704200524349034BRETON THIERRY                                                  BRETON THIERRY                  VOIT 34 COURVILLE  LA LOUPE     000002                                                          4 RUE RAYMOND BATAILLE                                          0237267036              ST GEORGES SUR EURE                                                                                                                                                 *
201704200524350034INTERMARCHE MR HERON                                            INTERMARCHE MR HERON            VOIT 34 COURVILLE  LA LOUPE     000002                                                          RUE DE LA PLAINE                                                0237267575              ST GEORGES SUR EURE                                                                                                                                                 *
201704200521613034CHARDON THERESE-E077/E219                                       CHARDON THERESE-E077/E219       VOIT 34 COURVILLE  LA LOUPE     000000                                                          52 RUE DU PETIT ORME                                            0646675060              BAILLEAU LE PIN                                                                                                                                                     *
201704200521403034BERGER COLETTE - E062/E225                                      BERGER COLETTE - E062/E225      VOIT 34 COURVILLE  LA LOUPE     000000                                                          29 RUE DU RELAIS                                                0237258074              MIGNIERES                                                                                                                                                           *
201704200524355034ROUGEOT SOPHIA                                                  ROUGEOT SOPHIA                  VOIT 34 COURVILLE  LA LOUPE     000001                                                          4 RUE DE CHARENTONNE                                            0237268120              ST LUPERCE                                                                                                                                                          *
201704200711732034POUCIN PATRICK                                                  POUCIN PATRICK                  VOIT 34 COURVILLE  LA LOUPE     000001                                                          36 RUE PANNARD                                                  0237232010              COURVILLE SUR EURE                                                                                                                                                  *
201704200649895034CHAILLOU JACKY                                                  CHAILLOU JACKY                  VOIT 34 COURVILLE  LA LOUPE     000002                                                          45 RUE CARNOT                                                   0237232529              COURVILLE SUR EURE                                                                                                                                                  *
201704200649919034SUPER U SAS ORME DES MURIE                                      SUPER U SAS ORME DES MURIE      VOIT 34 COURVILLE  LA LOUPE     000002                                                          RUE DE BEAUCE                                                   0237232050  0237233113  COURVILLE SUR EURE                                                                                                                                                  *
201704200711357034DELBART PASCAL   -REMP E03                                      DELBART PASCAL   -REMP E03      VOIT 34 COURVILLE  LA LOUPE     000000                                                          4 ALL DES CYPRES BLEUS          LA CLOSURE                      0237222757              CHUISNES                                                                                                                                                            *
201704200521411034LIDON CHRISTIAN - E069                                          LIDON CHRISTIAN - E069          VOIT 34 COURVILLE  LA LOUPE     000000                                                          13 AV DU GENERAL DE GAULLE                                      0237374157              PONTGOUIN                                                                                                                                                           *
201704200648689034LEROY JONATHAN - E090-E231                                      LEROY JONATHAN - E090-E231      VOIT 34 COURVILLE  LA LOUPE     000000                                                          1 RES LES BASSIERES                                                                     BELHOMERT GUEHOUVILLE                                                                                                                                               *
201704200524376034INTERMARCHE                                                     INTERMARCHE                     VOIT 34 COURVILLE  LA LOUPE     000002                                                          1 IMP DE LA CERISAIE                                            0237812830              LA LOUPE                                                                                                                                                            *
201704200524388034CARDON DIDIER                                                   CARDON DIDIER                   VOIT 34 COURVILLE  LA LOUPE     000005                                                          6 RUE DE LA GARE                                                0237810971              LA LOUPE                                                                                                                                                            *
201704200524396034CARREFOUR MARKET                                                CARREFOUR MARKET                VOIT 34 COURVILLE  LA LOUPE     000002                                                          64 RUE DE L EGLISE                                              0237811625              LA LOUPE                                                                                                                                                            *
201704200643302034TOURNEAU PHILIPPINE                                             TOURNEAU PHILIPPINE             VOIT 34 COURVILLE  LA LOUPE     000002                                                          14 RUE DU GENERAL DE GAULLE                                     0237370297              BELHOMERT GUEHOUVILLE                                                                                                                                               *
201704200521423034DANIEL EDITH - E078/E220                                        DANIEL EDITH - E078/E220        VOIT 34 COURVILLE  LA LOUPE     000000                                                          RUE DU CHEMIN DE PARIS          LES 8 CHENES                                            SENONCHES                                                                                                                                                           *
201704200521439034CHENAL ERIC - E089                                              CHENAL ERIC - E089              VOIT 34 COURVILLE  LA LOUPE     000000                                                          12 LES MOURONNERIES                                             0237492558              SENONCHES                                                                                                                                                           *
201704200650061034LEGER TONY                                                      LEGER TONY                      VOIT 34 COURVILLE  LA LOUPE     000002                                                          35 RUE DU MARECHAL LECLERC                                      0964091682              DIGNY                                                                                                                                                               *
201704200452727034BOKRI NIZAR                                                     BOKRI NIZAR                     VOIT 34 COURVILLE  LA LOUPE     000002                                                          53 RUE DU MARECHAL LECLERC                                      0237290467  0237290467  DIGNY                                                                                                                                                               *
201704200453116034CSF CARREFOUR MARKET                                            CSF CARREFOUR MARKET            VOIT 34 COURVILLE  LA LOUPE     000002                                                          RTE DU MANS                                                     0237518080              THIMERT GATELLES                                                                                                                                                    *
201704200689547034MALATIER BRIGITTE                                               MALATIER BRIGITTE               VOIT 34 COURVILLE  LA LOUPE     000001                                                          60 RUE JEAN MOULIN                                              0237516031              CHATEAUNEUF EN THYMERAIS                                                                                                                                            *
201704200689669034LAUVERNIER JOEL                                                 LAUVERNIER JOEL                 VOIT 34 COURVILLE  LA LOUPE     000001                                                          41 RUE JEAN MOULIN                                              0237516105              CHATEAUNEUF EN THYMERAIS                                                                                                                                            *
201704200690233034SEDILLOT ISABELLE                                               SEDILLOT ISABELLE               VOIT 34 COURVILLE  LA LOUPE     000001                                                          10 RUE MAURICE VIOLLETTE                                        0237518213              CHATEAUNEUF EN THYMERAIS                                                                                                                                            *
201704200521390034MOULIN CHANTAL - E053                                           MOULIN CHANTAL - E053           VOIT 34 COURVILLE  LA LOUPE     000000                                                          21 RUE DE L HOPITAL                                             0237518269              CHATEAUNEUF EN THYMERAIS                                                                                                                                            *
201704200524424034INTERMARCHE                                                     INTERMARCHE                     VOIT 34 COURVILLE  LA LOUPE     000002                                                          RUE PASTEUR                                                     0237225807              FONTAINE LA GUYON                                                                                                                                                   *
201704200592036034GOSSELIN MARIE ANTOINETTE                                       GOSSELIN MARIE ANTOINETTE       VOIT 34 COURVILLE  LA LOUPE     000002                                                          4 B RUE CHARLES PEGUY                                           0237225972              FONTAINE LA GUYON                                                                                                                                                   *
201704200521416036TOURNEREAU BRUNO - E072                                         TOURNEREAU BRUNO - E072         VOIT 36 JANVILLE                000000                                                          12 RUE DU GENERAL DE GAULLE                                                             VOVES                                                                                                                                                               *
201704200611462036TOURNEREAU AMELIE - E072 R                                      TOURNEREAU AMELIE - E072 R      VOIT 36 JANVILLE                000000                                                          12 RUE DU GENERAL DE GAULLE                                                             VOVES                                                                                                                                                               *
201704200522584036BARDE BEATRICE                                                  BARDE BEATRICE                  VOIT 36 JANVILLE                000002                                                          12 PL DU 14 JUILLET                                             0953896217              PRUNAY LE GILLON                                                                                                                                                    *
201704200651532036LEVEILLARD DENIS -E103                                          LEVEILLARD DENIS -E103          VOIT 36 JANVILLE                000000                                                          21 RUE NOUVELLE                                                 0237259160              PRUNAY LE GILLON                                                                                                                                                    *
201704200696931036GICQUEL NELLY -E067                                             GICQUEL NELLY -E067             VOIT 36 JANVILLE                000000                                                          3 IMP DU TRIPOT                                                                         BOISVILLE LA ST PERE                                                                                                                                                *
201704200611473036GHAYA MEDHI - E073                                              GHAYA MEDHI - E073              VOIT 36 JANVILLE                000000                                                          8 RUE DES OUCHES                                                                        FRESNAY L EVEQUE                                                                                                                                                    *
201704200524460036DUMENIL MICKAEL                                                 DUMENIL MICKAEL                 VOIT 36 JANVILLE                000002                                                          10 RUE DE LA REPUBLIQUE                                         0237993003              BOISVILLE LA ST PERE                                                                                                                                                *
201704200672518036REIS EMERSON                                                    REIS EMERSON                    VOIT 36 JANVILLE                000006                                                          5 RUE DE LA REPUBLIQUE                                          0237990031              VOVES                                                                                                                                                               *
201704200554601036CARREFOUR MARKET                                                CARREFOUR MARKET                VOIT 36 JANVILLE                000002                                                          RUE DE LOIGNY LA BATAILLE                                       0237990911              VOVES                                                                                                                                                               *
201704200663659036INTERMARCHE SAS POMME                                           INTERMARCHE SAS POMME           VOIT 36 JANVILLE                000001                                                          RUE DENIS PAPIN                                                 0237182550              VOVES                                                                                                                                                               *
201704200521490036HALLOUIN CECILIA - E097                                         HALLOUIN CECILIA - E097         VOIT 36 JANVILLE                000000                                                          32 RUE DE LA REPUBLIQUE                                         0245730183              PRASVILLE                                                                                                                                                           *
201704200680007036MOULARD GARY -E095                                              MOULARD GARY -E095              VOIT 36 JANVILLE                000000                                                          2 RUE DE LA LIBERATION                                                                  PRASVILLE                                                                                                                                                           *
201704200718759036SIRAVO JIMMY                                                    SIRAVO JIMMY                    VOIT 36 JANVILLE                000001                                                          22 PL DU MARTROI                                                0237900048              JANVILLE                                                                                                                                                            *
201704200613283036INTERMARCHE GIRAUD MICHEL                                       INTERMARCHE GIRAUD MICHEL       VOIT 36 JANVILLE                000001                                                          14 AV DU GENERAL DE GAULLE                                      0237900281              JANVILLE                                                                                                                                                            *
201704200647712036TOURNE DENIS  -REMP                                             TOURNE DENIS  -REMP             VOIT 36 JANVILLE                000000                                                          5 RUE DU BOURDON BLANC                                                                  JANVILLE                                                                                                                                                            *
201704200452615036LOPEZ SERGE                                                     LOPEZ SERGE                     VOIT 36 JANVILLE                000001                                                          118 RUE NATIONALE                                               0237905382  0237905382  TOURY                                                                                                                                                               *
201704200452634036NOEL SYLVIE                                                     NOEL SYLVIE                     VOIT 36 JANVILLE                000002                                                          1 RUE DU 23 AOUT 1944                                           0237999013  0237999013  FRESNAY L EVEQUE                                                                                                                                                    *
201704200524462036SIMONET THIERRY                                                 SIMONET THIERRY                 VOIT 36 JANVILLE                000001                                                          31 RUE DU HAUT CHEMIN                                           0237322567              YMONVILLE                                                                                                                                                           *
201704200524520040PELLETIER CATHERINE                                             PELLETIER CATHERINE             VOIT 40 DREUX                   000002                                                          2 RUE DE BAILLETTE                                              0237652819              TREMBLAY LES VILLAGES                                                                                                                                               *
201704200524530040DARD CHRISTIAN                                                  DARD CHRISTIAN                  VOIT 40 DREUX                   000001                                                          RTE NATIONALE 154                                               0237630450  0237653488  SERAZEREUX                                                                                                                                                          *
201704200452694040RELAIS H                                                        RELAIS H                        VOIT 40 DREUX                   000001                                                                                                                          0237463026              DREUX                                                                                                                                                               *
201704200581605040LETELLIER JEREMY - E005                                         LETELLIER JEREMY - E005         VOIT 40 DREUX                   000000                                                          30 RUE DE FERMAINCOURT                                                                  ABONDANT                                                                                                                                                            *
201704200603541040BOISARD KATIA - E106                                            BOISARD KATIA - E106            VOIT 40 DREUX                   000000                                                          14 BD DE L EUROPE               APPT 10                                                 DREUX                                                                                                                                                               *
201704200559839040MENDES CARLOS - E102                                            MENDES CARLOS - E102            VOIT 40 DREUX                   000000                                                          50 RUE DE MORONVAL                                              0960417579              DREUX                                                                                                                                                               *
201704200521509040LIMA DOS ANJOS A E108/E223                                      LIMA DOS ANJOS A E108/E223      VOIT 40 DREUX                   000000                                                          18 AV DES FLAMBARDS                                             0237642498              DREUX                                                                                                                                                               *
201704200497332040DUTILLEUX NATHALIE - E307                                       DUTILLEUX NATHALIE - E307       VOIT 40 DREUX                   000000                                                          5 RUE SIMON BOLIVAR                                             0662621672              VERNOUILLET                                                                                                                                                         *
201704200521486040SAILLANT GASTON - E096                                          SAILLANT GASTON - E096          VOIT 40 DREUX                   000000                                                          12 RUE GUSTAVE FLAUBERT                                         0237460836              VERNOUILLET                                                                                                                                                         *
201704200521488040HAMROUNI MOHAMED - E109                                         HAMROUNI MOHAMED - E109         VOIT 40 DREUX                   000000                                                          21 RUE DES ACACIAS                                                                      GARNAY                                                                                                                                                              *
201704200521251040OVERMANN GUY - E016                                             OVERMANN GUY - E016             VOIT 40 DREUX                   000000                                                          2 RUE DE VERNOUILLET                                                                    DREUX                                                                                                                                                               *
201704200521250040DUVAL JEAN-CLAUDE - E015                                        DUVAL JEAN-CLAUDE - E015        VOIT 40 DREUX                   000000                                                          5 RUE HENRI BARBUSSE                                            0237422781              DREUX                                                                                                                                                               *
201704200582834040JARDIN JEAN-PATRICK - E017                                      JARDIN JEAN-PATRICK - E017      VOIT 40 DREUX                   000000                                                          4 RTE DES CORICORNES                                                                    ROUVRES                                                                                                                                                             *
201704200452909040ALIMENTATION NETTO                                              ALIMENTATION NETTO              VOIT 40 DREUX                   000001                                                          7 PL DU MARCHE                                                  0237489990  0237489990  ST REMY SUR AVRE                                                                                                                                                    *
201704200452912040FEUILLEUSE LAURENT                                              FEUILLEUSE LAURENT              VOIT 40 DREUX                   000001                                                          35 RUE EUGENE RAYMOND                                           0237489113  0237489113  ST REMY SUR AVRE                                                                                                                                                    *
201704200711349040GROULT PATRICK  -REMP E061                                      GROULT PATRICK  -REMP E061      VOIT 40 DREUX                   000000                                                          3 RUE DE L AVON                                                                         DREUX                                                                                                                                                               *
201704200453022040CENTRE LECLERC AVREDIS SAS                                      CENTRE LECLERC AVREDIS SAS      VOIT 40 DREUX                   000002                                                          RUE DE LA BARONNIE                                              0232582334  0202325823  ST LUBIN DES JONCHERETS                                                                                                                                             *
201704200566190040ADAMY CAROLE                                                    ADAMY CAROLE                    VOIT 40 DREUX                   000001                                                          57 RUE CHARLES RENARD                                           0232371458              ST LUBIN DES JONCHERETS                                                                                                                                             *
201704200452747040BREUX CHRISTIAN                                                 BREUX CHRISTIAN                 VOIT 40 DREUX                   000002                                                          30 GRANDE RUE                                                   0232580273              NONANCOURT                                                                                                                                                          *
201704200452995040RACINET REMI                                                    RACINET REMI                    VOIT 40 DREUX                   000002                                                          RUE DE NONANCOURT               LA POTINIERE                    0232328020  0232328020  NONANCOURT                                                                                                                                                          *
201704200524563040DEMAUX NICOLE                                                   DEMAUX NICOLE                   VOIT 40 DREUX                   000002                                                          9 RUE DE PARIS                                                  0232325157              TILLIERES SUR AVRE                                                                                                                                                  *
201704200723692040SERY JEAN MICHEL                                                SERY JEAN MICHEL                VOIT 40 DREUX                   000001                                                          25 RUE THIERS                                                   0232320297              VERNEUIL SUR AVRE                                                                                                                                                   *
201704200524566040LEVEAU PASCAL                                                   LEVEAU PASCAL                   VOIT 40 DREUX                   000003                                                          3 PL DE LA HALLE                                                0237484497              BREZOLLES                                                                                                                                                           *
201704200453057040CARREFOUR CONTACT                                               CARREFOUR CONTACT               VOIT 40 DREUX                   000003                                                          56 RUE DE PARIS                                                 0237483510  0237483530  BREZOLLES                                                                                                                                                           *
201704200524567040LE GAC GAETAN                                                   LE GAC GAETAN                   VOIT 40 DREUX                   000002                                                          4 PL DU PETIT MARCHE                                            0237482030              BREZOLLES                                                                                                                                                           *
201704200734763040HAMARD VIRGINIE                                                 HAMARD VIRGINIE                 VOIT 40 DREUX                   000002                                                          1 RUE DU DR PAUL ARMAND DEL                                     0237481704              MAILLEBOIS                                                                                                                                                          *
201704200452910040FAVRIL                                                          FAVRIL                          VOIT 40 DREUX                   000002                                                          48 RUE HUBERT LATHAM                                            0237481706              MAILLEBOIS                                                                                                                                                          *
201704200521436040POLVECHE J-Y - E087                                             POLVECHE J-Y - E087             VOIT 40 DREUX                   000000                                                          7 RUE DES LONGUES PEINES                                        0237383254              LE BOULLAY THIERRY                                                                                                                                                  *
201704200708757040AGUIAR PAULO                                                    AGUIAR PAULO                    VOIT 40 DREUX                   000001                                                          19 RUE DE VERDUN                                                0237514295              LORMAYE                                                                                                                                                             *
201704200652777040FARES LOFTI                                                     FARES LOFTI                     VOIT 40 DREUX                   000001                                                          1 RTE DE RAMBOUILLET                                            0237417525              FAVEROLLES                                                                                                                                                          *
201704200556100045TALON DEPANNAGE DREUX                                           TALON DEPANNAGE DREUX           VOIT 45 VERNOUILLET DREUX       000000                                                          17 GR MAURICE VIOLLETTE                                                                 DREUX                                                                                                                                                               *
201704200664706045TALON MME DUVAL DEPOT DREU                                      TALON MME DUVAL DEPOT DREU      VOIT 45 VERNOUILLET DREUX       000000                                                          17 GR MAURICE VIOLLETTE                                                                 DREUX                                                                                                                                                               *
201704200556079045AGENCE ECHO REPUBLICAIN                                         AGENCE ECHO REPUBLICAIN         VOIT 45 VERNOUILLET DREUX       000006                                                          5 PL METEZEAU                                                                           DREUX                                                                                                                                                               *
201704200723514045MASSOT FREDERIQUE                                               MASSOT FREDERIQUE               VOIT 45 VERNOUILLET DREUX       000001                                                          5 PL METEZEAU                                                   0237460753              DREUX                                                                                                                                                               *
201704200524465045LE LAY BENOIT                                                   LE LAY BENOIT                   VOIT 45 VERNOUILLET DREUX       000001                                                          1 RUE DE SENARMONT                                              0237644758              DREUX                                                                                                                                                               *
201704200524469045CLERC                                                           CLERC                           VOIT 45 VERNOUILLET DREUX       000001                                                          2 PL DES FUSILLES                                               0237462345              DREUX                                                                                                                                                               *
201704200682323045QUERNIARD FRANCK                                                QUERNIARD FRANCK                VOIT 45 VERNOUILLET DREUX       000001                                                          38 BD HENRI IV                                                  0237461863              DREUX                                                                                                                                                               *
201704200524473045FEUILLET JACQUES                                                FEUILLET JACQUES                VOIT 45 VERNOUILLET DREUX       000001                                                          2 RUE GEORGES BESSE                                             0237384954              DREUX                                                                                                                                                               *
201704200524475045BELAARIF HASSAN                                                 BELAARIF HASSAN                 VOIT 45 VERNOUILLET DREUX       000001                                                          46 BD HENRI IV                                                  0237461583              DREUX                                                                                                                                                               *
201704200576172045GOURET CHANTAL                                                  GOURET CHANTAL                  VOIT 45 VERNOUILLET DREUX       000002                                                          52 BD HENRI IV                                                  0237460628              DREUX                                                                                                                                                               *
201704200524513045AMISSE JEAN PIERRE                                              AMISSE JEAN PIERRE              VOIT 45 VERNOUILLET DREUX       000001                                                          30 AV DU GENERAL MARCEAU                                        0237460137              DREUX                                                                                                                                                               *
201704200524485045TAILLANDIER CHRISTOPHE                                          TAILLANDIER CHRISTOPHE          VOIT 45 VERNOUILLET DREUX       000002                                                          PL DU 8 MAI 1945                                                0237423449              DREUX                                                                                                                                                               *
201704200674471045FEUILLET JACQUES                                                FEUILLET JACQUES                VOIT 45 VERNOUILLET DREUX       000001                                                          118 AV DU GENERAL LECLERC                                       0237423641              DREUX                                                                                                                                                               *
201704200452886045CENTRE LECLERC                                                  CENTRE LECLERC                  VOIT 45 VERNOUILLET DREUX       000001                                                          BD DE L EUROPE                  ZAC DES BATES                   0237380170  0237300528  DREUX                                                                                                                                                               *
201704200524490045DAMAMME TIFFANY                                                 DAMAMME TIFFANY                 VOIT 45 VERNOUILLET DREUX       000001                                                          RUE DE LA SABLONNIERE                                           0237461403  0237486795  DREUX                                                                                                                                                               *
201704200524494045RAMOS GEORGES                                                   RAMOS GEORGES                   VOIT 45 VERNOUILLET DREUX       000001                                                          44 AV DU PDT J F KENNEDY        RELAIS H HOPITAL                0237635729              DREUX                                                                                                                                                               *
201704200524511045SIMOES REINALDO                                                 SIMOES REINALDO                 VOIT 45 VERNOUILLET DREUX       000001                                                          42 RUE SAINT DENIS                                              0237500588              DREUX                                                                                                                                                               *
201704200658236045ERDOGAN ALI                                                     ERDOGAN ALI                     VOIT 45 VERNOUILLET DREUX       000001                                                          117 RUE DU BOIS SABOT                                           0237465002              DREUX                                                                                                                                                               *
201704200676423045FIASCHI MARIO                                                   FIASCHI MARIO                   VOIT 45 VERNOUILLET DREUX       000001                                                          2 AV MARC CHAPPEY                                               0966420255              VERNOUILLET                                                                                                                                                         *
201704200453143045INTERMARCHE                                                     INTERMARCHE                     VOIT 45 VERNOUILLET DREUX       000002                                                          RTE DE CRECY                    LES CORVEES                     0237424849  0237424849  VERNOUILLET                                                                                                                                                         *
201704200524493045LE HEN MARIE LINE                                               LE HEN MARIE LINE               VOIT 45 VERNOUILLET DREUX       000001                                                          30 RUE HENRI DUPONT                                             0237461076              VERNOUILLET                                                                                                                                                         *
201704200557608045HYPER U                                                         HYPER U                         VOIT 45 VERNOUILLET DREUX       000001                                                                                                                          0237626200              VERNOUILLET                                                                                                                                                         *
201704200524503045DEVILLIERS DOMINIQUE                                            DEVILLIERS DOMINIQUE            VOIT 45 VERNOUILLET DREUX       000003                                                          RUE DU PRESSOIR                                                 0237464147              VERNOUILLET                                                                                                                                                         *
201704200453008045GAUTIER YANNICK                                                 GAUTIER YANNICK                 VOIT 45 VERNOUILLET DREUX       000001                                                          6 RTE DE BREZOLLES                                              0237467563  0237467563  VERNOUILLET                                                                                                                                                         *
201704200683450045RESVE RICHARD                                                   RESVE RICHARD                   VOIT 45 VERNOUILLET DREUX       000001                                                          1 AV LOUISE MICHEL                                              0662758818              VERNOUILLET                                                                                                                                                         *
201704200556150097ABONNES POSTE BR93                                              ABONNES POSTE BR93              VOIT 97 CHATEAUDUN              000000                                                          21 RUE VINCENT CHEVARD                                          0237888888              CHARTRES                                                                                                                                                            *
201704200610974097BOUVIER PATRICK - E003                                          BOUVIER PATRICK - E003          VOIT 97 CHATEAUDUN              000000                                                          26 RUE DES PENDANTS                                                                     LA CHAPELLE DU NOYER                                                                                                                                                *
201704200521420097GALLOPIN ERIC - E075                                            GALLOPIN ERIC - E075            VOIT 97 CHATEAUDUN              000000                                                          9 RUE DES CONTRE OUCHES                                         0237266140              LA BOURDINIERE ST LOUP                                                                                                                                              *
201704200692067097PERILLIER FRANCINE                                              PERILLIER FRANCINE              VOIT 97 CHATEAUDUN              000003                                                          13 RUE SAINT ROCH                                               0237472137  0237475457  BONNEVAL                                                                                                                                                            *
201704200524577097STANISLAS RODOLPHE                                              STANISLAS RODOLPHE              VOIT 97 CHATEAUDUN              000002                                                          40 RUE DE CHARTRES                                              0237473092              BONNEVAL                                                                                                                                                            *
201704200524578097DARMIGNY PAULINE                                                DARMIGNY PAULINE                VOIT 97 CHATEAUDUN              000002                                                          1 PL DE L EGLISE                                                0614810019              BONNEVAL                                                                                                                                                            *
201704200453141097CSF CARREFOUR MARKET                                            CSF CARREFOUR MARKET            VOIT 97 CHATEAUDUN              000002                                                          RUE DENIS PAPIN                 ZA DE LA LOUVETERIE             0237475751              BONNEVAL                                                                                                                                                            *
201704200521278097GOIN GUILLAUME - E036                                           GOIN GUILLAUME - E036           VOIT 97 CHATEAUDUN              000000                                                          6 RUE BASSE DU MAIL                                             0237472318              BONNEVAL                                                                                                                                                            *
201704200521405097DAVID GUY - E064                                                DAVID GUY - E064                VOIT 97 CHATEAUDUN              000000                                                          LE PLESSIS                                                      0237987437              MARBOUE                                                                                                                                                             *
201704200724363097MELIN JULIEN                                                    MELIN JULIEN                    VOIT 97 CHATEAUDUN              000001                                                          15 AV DU QUINZE AOUT 1944                                       0237450174              MARBOUE                                                                                                                                                             *
201704200521280097TACHAU EMMANUEL - E037                                          TACHAU EMMANUEL - E037          VOIT 97 CHATEAUDUN              000000                                                          1 RUE DES MERIS                 AIGNEVILLE                      0237476086              PRE ST MARTIN                                                                                                                                                       *
201704200521433097ROUGEAULT ARCADY - E086                                         ROUGEAULT ARCADY - E086         VOIT 97 CHATEAUDUN              000000                                                          5 RUE HARDOUIN                                                  0237451510              CHATEAUDUN                                                                                                                                                          *
201704200453046097NOEL VANESSA                                                    NOEL VANESSA                    VOIT 97 CHATEAUDUN              000006                                                          5 RUE NATIONALE                                                 0237985237  0237985237  CLOYES SUR LE LOIR                                                                                                                                                  *
201704200558578097NOEL VANESSA - E058                                             NOEL VANESSA - E058             VOIT 97 CHATEAUDUN              000000                                                          5 RUE NATIONALE                                                 0237000000              CLOYES SUR LE LOIR                                                                                                                                                  *
201704200521102097ANDRIAMAMPIANINA T - E004                                       ANDRIAMAMPIANINA T - E004       VOIT 97 CHATEAUDUN              000000                                                          18 RUE HENRI DUNANT                                                                     CHATEAUDUN                                                                                                                                                          *
201704200521272097SCHWARTZ PAUL - E031                                            SCHWARTZ PAUL - E031            VOIT 97 CHATEAUDUN              000000                                                          4 RUE DU BOIS DES GATS                                          0237453299              CHATEAUDUN                                                                                                                                                          *
201704200611284097JUCHET FRANCOISE - E060                                         JUCHET FRANCOISE - E060         VOIT 97 CHATEAUDUN              000000                                                          9 HAM DE MENAINVILLE                                                                    LUTZ EN DUNOIS                                                                                                                                                      *
201704200521505097LEROY JEAN-PIERRE - E074                                        LEROY JEAN-PIERRE - E074        VOIT 97 CHATEAUDUN              000000                                                          25 RUE ALBERT CAMUS                                                                     CHATEAUDUN                                                                                                                                                          *
201704200574327097LECOMTE JEAN-LOUIS - E107                                       LECOMTE JEAN-LOUIS - E107       VOIT 97 CHATEAUDUN              000000                                                          ALL DES GENETS                  GARENNES DE MEMILLON            0237472423              ST MAUR SUR LE LOIR                                                                                                                                                 *
201704200678219097MARTIN DIDIER -E107 REMP                                        MARTIN DIDIER -E107 REMP        VOIT 97 CHATEAUDUN              000000                                                          25 RUE MONT BARRY LA FRINGAL                                    0237968952              LA CHAPELLE DU NOYER                                                                                                                                                *
201704200729144097MAZZOCCO FABRICE    E302                                        MAZZOCCO FABRICE    E302        VOIT 97 CHATEAUDUN              000000                                                          19 RUE DES PENDANTS             LA VARENNE FERRON                                       LA CHAPELLE DU NOYER                                                                                                                                                *
201704200497161097LECOSSIER MARYLINE - E303                                       LECOSSIER MARYLINE - E303       VOIT 97 CHATEAUDUN              000000                                                          8 IMP DES BEGNOUX                                               0622085740              ST DENIS LES PONTS                                                                                                                                                  *
201704200454240097BEAUVILLAIN M-A - E304                                          BEAUVILLAIN M-A - E304          VOIT 97 CHATEAUDUN              000000                                                          45 RUE JEAN MACE                                                0679062102              CHATEAUDUN                                                                                                                                                          *
201704200672226097LEMAIRE MARIE CLAUDE -E104                                      LEMAIRE MARIE CLAUDE -E104      VOIT 97 CHATEAUDUN              000000                                                          35 HAM D ETEAUVILLE                                             0237457052              LUTZ EN DUNOIS                                                                                                                                                      *
201704200561948097OZDEMIR BARIS - E110/E215                                       OZDEMIR BARIS - E110/E215       VOIT 97 CHATEAUDUN              000000                                                          25 RUE BRANLY                                                                           CHATEAUDUN                                                                                                                                                          *
201704200611745097JACOBS CHRISTOPHE                                               JACOBS CHRISTOPHE               VOIT 97 CHATEAUDUN              000002                                                          43 RUE DE LA REPUBLIQUE                                         0237662282              CHATEAUDUN                                                                                                                                                          *
